S01100004C6162355461736B312E737265630B
S11300000C9434000C9449000C9449000C9449005D
S11300100C9449000C9449000C9449000C94490038
S11300200C9449000C9449000C9449000C94490028
S11300300C9449000C9449000C9449000C94490018
S11300400C9449000C9449000C9449000C94490008
S11300500C9449000C9449000C9449000C944900F8
S11300600C9449000C94490011241FBECFEFD8E032
S1130070DEBFCDBF11E0A0E0B1E0E6E6F4E002C0EF
S113008005900D92A232B107D9F70E9477010C9422
S113009031020C94000095B19F7E95B995B1907F83
S11300A095B925B1982F92959F70922B95B995B1DA
S11300B0906295B9EFECF7E03197F1F700C00000DA
S11300C095B19F7D95B9EFECF7E03197F1F700C05A
S11300D0000095B1907F95B995B18F70892B85B942
S11300E085B1806285B98FEC97E00197F1F700C084
S11300F0000085B18F7D85B9089595B1906195B95A
S113010095B1907F95B925B1982F92959F70922BB8
S113011095B995B1906295B9EFECF7E03197F1F7A5
S113012000C0000095B19F7D95B9EFECF7E03197E1
S1130130F1F700C0000095B1907F95B995B18F702B
S1130140892B85B985B1806285B98FEC97E00197D9
S1130150F1F700C0000085B18F7D85B908958FEF58
S113016084B92FE389E191E0215080409040E1F788
S113017000C0000080E30E944B008FE097E20197EB
S1130180F1F700C0000080E30E944B008FEC97E081
S11301900197F1F700C0000082E00E944B008FEC51
S11301A097E00197F1F700C0000088E20E944B003D
S11301B081E00E944B008FE00E944B0008950F9352
S11301C01F93CF93DF938C01C0E0D0E003C00E9463
S11301D07D002196F801EC0FFD1F80818111F7CF7E
S11301E0DF91CF911F910F910895EF92FF920F939A
S11301F01F93CF93DF9300D000D01F92CDB7DEB70B
S11302007C0199231CF48DE20E947D0000E010E043
S113021001C08C01C7019927EAE0F0E0BF010E9408
S11302200902282FC701BF010E9409027B01E1E0F6
S1130230F0E0EC0FFD1FE00FF11F205D2083C801EB
S11302400196672B79F08530910519F70BC0E1E031
S1130250F0E0EC0FFD1FE00FF11F80810E947D0094
S11302600150110911239CF70F900F900F900F90DC
S11302700F90DF91CF911F910F91FF90EF90089510
S11302808FEF8BB980EF8AB98FE08BB989B190E099
S1130290809590958F709927892B39F199B1909514
S11302A09F7040E002C096954F5F9130E1F78FEF69
S11302B08BB98FE08AB980EF8BB929B130E02095F2
S11302C03095207F33273595279535952795359596
S11302D027953595279580E002C026958F5F2130BC
S11302E0E1F7880F880F840F08958FEF08950E9417
S11302F0AF0080E191E00E94DF0081E00E944B00AA
S113030082E00E944B001AB88FEF8BB90E94400123
S1130310082F880F110B0F3F2FEF120731F0F80150
S1130320E050FF4F80810E947D008FE798E321E039
S1130330815090402040E1F700C000000E9440013D
S1130340F82E082E000C990B8F3F2FEF920731F0F7
S1130350FC01E050FF4F80810E947D008FE798E30D
S113036021E0815090402040E1F700C000000E944D
S11303704001C82F880FDD0BCF3F8FEFD80731F036
S1130380FE01E050FF4F80810E947D009FE728E33B
S113039081E0915020408040E1F700C000000E94BD
S11303A04001082E000C990B8F3F2FEF920709F4A0
S11303B0ADCF8A30910509F0A9CFFC01E050FF4F81
S11303C080810E947D00C801BE010E940902862F1F
S11303D0972FC62FD72F0E94F5008FE798E321E0CF
S11303E0815090402040E1F700C000008CE0F812FA
S11303F08DCF219609F48ACF81E00E944B002FEF24
S113040084E39CE0215080409040E1F700C000006C
S11304107DCF97FB072E16F4009407D077FD09D003
S11304200E941D0207FC05D03EF4909581959F4FD4
S11304300895709561957F4F0895AA1BBB1B51E1E8
S113044007C0AA1FBB1FA617B70710F0A61BB70B40
S1130450881F991F5A95A9F780959095BC01CD01E5
S10904600895F894FFCF9B
S11304663738392F343536583132332D43303D2B16
S11304764C434420496E697469616C697A656421E8
S1050486000070
S9030000FC
