S01700004763634170706C69636174696F6E312E737265635B
S11300000C9434000C9449000C9449000C9449005D
S11300100C9449000C9449000C9449000C94490038
S11300200C9449000C9449000C9449000C94490028
S11300300C9449000C9449000C9449000C94490018
S11300400C9449000C9449000C9449000C94490008
S11300500C9449000C9449000C9449000C944900F8
S11300600C9449000C94490011241FBECFEFD8E032
S1130070DEBFCDBF11E0A0E0B1E0EEEFF0E002C0E2
S113008005900D92AA30B107D9F70E944B000C9449
S11300907D000C940000CF93DF93CDB7DEB72A9791
S11300A00FB6F894DEBF0FBECDBF81E084B980E9FE
S11300B08AB98AE0E0E0F1E0DE01119601900D9248
S11300C08A95E1F780E085B99BB19F779BB9E1E020
S11300D0F0E0EC0FFD1FE80FF11D908195B99BB185
S11300E090689BB98F5F2FEF30E792E0215030404A
S11100F09040E1F700C00000E6CFF894FFCF87
S10D00FEC0F9A4B0999282F8809032
S9030000FC
