:100000000C9434000C9449000C9449000C94490061
:100010000C9449000C9449000C9449000C9449003C
:100020000C9449000C9449000C9449000C9449002C
:100030000C9449000C9449000C9449000C9449001C
:100040000C9449000C9449000C9449000C9449000C
:100050000C9449000C9449000C9449000C944900FC
:100060000C9449000C94490011241FBECFEFD8E036
:10007000DEBFCDBF11E0A0E0B1E0EAE8F5E002C0EC
:1000800005900D92AC35B107D9F70E9477010C9419
:10009000C3020C94000095B19F7E95B995B1907FF5
:1000A00095B925B1982F92959F70922B95B995B1DE
:1000B000906295B9EFECF7E03197F1F700C00000DE
:1000C00095B19F7D95B9EFECF7E03197F1F700C05E
:1000D000000095B1907F95B995B18F70892B85B946
:1000E00085B1806285B98FEC97E00197F1F700C088
:1000F000000085B18F7D85B9089595B1906195B95E
:1001000095B1907F95B925B1982F92959F70922BBC
:1001100095B995B1906295B9EFECF7E03197F1F7A9
:1001200000C0000095B19F7D95B9EFECF7E03197E5
:10013000F1F700C0000095B1907F95B995B18F702F
:10014000892B85B985B1806285B98FEC97E00197DD
:10015000F1F700C0000085B18F7D85B908958FEF5C
:1001600084B92FE389E191E0215080409040E1F78C
:1001700000C0000080E30E944B008FE097E20197EF
:10018000F1F700C0000080E30E944B008FEC97E085
:100190000197F1F700C0000082E00E944B008FEC55
:1001A00097E00197F1F700C0000088E20E944B0041
:1001B00081E00E944B008FE00E944B0008950F9356
:1001C0001F93CF93DF938C01C0E0D0E003C00E9467
:1001D0007D002196F801EC0FFD1F80818111F7CF82
:1001E000DF91CF911F910F910895EF92FF920F939E
:1001F0001F93CF93DF9300D000D01F92CDB7DEB70F
:100200007C0199231CF48DE20E947D0000E010E047
:1002100001C08C01C7019927EAE0F0E0BF010E940C
:100220009B02282FC701BF010E949B027B01E1E0D6
:10023000F0E0EC0FFD1FE00FF11F205D2083C801EF
:100240000196672B79F08530910519F70BC0E1E035
:10025000F0E0EC0FFD1FE00FF11F80810E947D0098
:100260000150110911239CF70F900F900F900F90E0
:100270000F90DF91CF911F910F91FF90EF90089514
:100280008FEF8BB980EF8AB98FE08BB989B190E09D
:10029000809590958F709927892B39F199B1909518
:1002A0009F7040E002C096954F5F9130E1F78FEF6D
:1002B0008BB98FE08AB980EF8BB929B130E02095F6
:1002C0003095207F3327359527953595279535959A
:1002D00027953595279580E002C026958F5F2130C0
:1002E000E1F7880F880F840F08958FEF0895CF935B
:1002F000DF93CDB7DEB72A970FB6F894DEBF0FBEF7
:10030000CDBF0E94AF008AE491E00E94DF002FEF92
:1003100030E742E0215030404040E1F700C00000AB
:1003200081E00E944B0082E00E944B008AE0E0E402
:10033000F1E0DE01119601900D928A95E1F7EE242D
:10034000E394F12C41C00E944001082E000C990B4F
:100350008F3F2FEF920759F0F701EE0FFF1F21E0BB
:1003600030E02C0F3D1FE20FF31F91838083F701D4
:10037000EE0FFF1F21E030E02C0F3D1FE20FF31FB7
:1003800020813181000F111FE1E0F0E0EC0FFD1F33
:10039000E00FF11F4081518124173507A9F02F3F4D
:1003A0003F4F91F0FC01E05EFE4F80810E947D0096
:1003B0008FEF90E722E0815090402040E1F700C0AD
:1003C00000003FEFE31AF30AF701EE0FFF1F81E091
:1003D00090E08C0F9D1FE80FF91F808191818701AC
:1003E00001501109F801EE0FFF1F21E030E02C0F42
:1003F0003D1FE20FF31F208131818217930709F41B
:10040000A2CF35E0E316F1040CF49DCF019609F478
:100410009ACF0D811E810F301105B1F4EB81FC8163
:10042000EE0FFF1FE050FF4F20813181EF81F885F3
:10043000EE0FFF1FE050FF4F80819181820F931FCD
:100440009A8789870E94F5000B301105B1F4EB8182
:10045000FC81EE0FFF1FE050FF4F80819181EF8103
:10046000F885EE0FFF1FE050FF4F20813181821B86
:10047000930B9A8789870E94F50007301105D9F4FC
:10048000EB81FC81EE0FFF1FE050FF4F4081518157
:10049000EF81F885EE0FFF1FE050FF4F2081318183
:1004A000429FC001439F900D529F900D11249A8747
:1004B00089870E94F50003301105B9F4EB81FC81B6
:1004C000EE0FFF1FE050FF4F80819181EF81F88593
:1004D000EE0FFF1FE050FF4F608171810E949B0271
:1004E000CB017A8769870E94F5008EEF9FEF9E838C
:1004F0008D830E9440018C3009F066CF8FEF99E622
:1005000028E1815090402040E1F700C0000081E0E8
:100510000E944B0082E00E944B008FEF9FEF9C8374
:100520008B839E838D8398878F839A878987EE2418
:10053000E394F12C49CF97FB072E16F4009407D0D3
:1005400077FD09D00E94AF0207FC05D03EF49095DC
:1005500081959F4F0895709561957F4F0895AA1BCF
:10056000BB1B51E107C0AA1FBB1FA617B70710F09E
:10057000A61BB70B881F991F5A95A9F780959095D0
:0A058000BC01CD010895F894FFCFEF
:10058A00070008000900FFFF040005000600FFFF3E
:10059A00010002000300FFFFFFFF0000FFFFFFFF53
:1005AA003738392F343536583132332D43303D2BD5
:1005BA00303132333435363738394142434445468F
:1005CA00FFFFFFFFFFFFFFFFFFFF4C434420496E81
:0C05DA00697469616C697A656421000035
:00000001FF
