S01700004763634170706C69636174696F6E342E7372656358
S11300000C9434000C943E000C943E000C943E007E
S11300100C943E000C943E000C943E000C943E0064
S11300200C943E000C943E000C943E000C943E0054
S11300300C943E000C943E000C943E000C943E0044
S11300400C943E000C943E000C943E000C943E0034
S11300500C943E000C943E000C943E000C943E0024
S11300600C943E000C943E0011241FBECFEFD8E048
S1130070DEBFCDBF0E9440000C944C000C940000E5
S11300808FEF8AB983E087B98CE08BB988B18E7F12
S10F009088B980E090E00895F894FFCF58
S9030000FC
