S01400004C61623420506F73746C61622E73726563D8
S11300000C9434000C943E000C943E000C943E007E
S11300100C943E000C943E000C943E000C943E0064
S11300200C943E000C943E000C943E000C943E0054
S11300300C943E000C943E000C943E000C943E0044
S11300400C943E000C943E000C943E000C943E0034
S11300500C943E000C943E000C943E000C943E0024
S11300600C943E000C943E0011241FBECFEFD8E048
S1130070DEBFCDBF0E94CD000C94F4000C940000B0
S11300809BB19F709BB99BB1282F207F922B9BB96A
S11300909BB19E7F9BB99BB192609BB932E03A952C
S11300A0F1F700C09BB19D7F9BB9EFE8F1E0319778
S11300B0F1F700C000009BB19F709BB92BB1F0E138
S11300C08F9FC0011124822B8BB98BB182608BB9B5
S11300D032E03A95F1F700C08BB18D7F8BB98FE98F
S11300E09FE00197F1F700C0000008959BB19F7055
S11300F0282F207F922B9BB99BB191609BB99BB118
S113010092609BB932E03A95F1F700C09BB19D7FB4
S11301109BB9EFE8F1E03197F1F700C000002BB193
S1130120F0E18F9FC0011124922F9F70892B8BB90E
S11301308BB182608BB932E03A95F1F700C08BB194
S11301408D7F8BB98FE99FE00197F1F700C0000024
S113015008958FEF8AB98FE39CE90197F1F700C006
S1130160000083E30E94400082E30E94400088E292
S11301700E9440008CE00E94400086E00E94400003
S113018081E00E9440008FE99FE00197F1F700C0F1
S1130190000080E80E94400008950E94A90083E0C6
S11301A087B914B88FEF85B9349903C0D6B1D06F2D
S11301B001C0D0EFCFEF349BFECF86B18F70C82B38
S11301C020E1C29FC0011124C82BC07FDC2B8D2FDE
S11301D00E9476008FEF93E224EF815090402040FC
S10F01E0E1F700C00000E7CFF894FFCF67
S9030000FC
