S01700004C416235496E6C61626B65797061642E7372656385
S11300000C9434000C943E000C943E000C943E007E
S11300100C943E000C943E000C943E000C943E0064
S11300200C943E000C943E000C943E000C943E0054
S11300300C943E000C943E000C943E000C943E0044
S11300400C943E000C943E000C943E000C943E0034
S11300500C943E000C943E000C943E000C943E0024
S11300600C943E000C943E0011241FBECFEFD8E048
S1130070DEBFCDBF0E943C010C9452010C940000E1
S11300808FE08AB980EF8BB94F9917C02FEF80E7C3
S113009092E0215080409040E1F700C0000080EFE2
S11300A08AB98FE08BB94B9B38C04A9B38C0499BB7
S11300B038C0489938C08CE008954E990EC080EF3E
S11300C08AB98FE08BB94C9B30C04D9B30C04E9B9E
S11300D030C04F9930C088E008954D990EC080EF2C
S11300E08AB98FE08BB94C9B28C04D9B28C04E9B8E
S11300F028C04F9928C084E008954C9926C080EF09
S11301008AB98FE08BB94C9B22C04D9B22C04E9B79
S113011022C04F9922C080E008958FE008958EE0B8
S113012008958DE008958FEF08958BE008958AE097
S1130130089589E008958FEF089587E0089586E093
S1130140089585E008958FEF08958FEF089583E073
S1130150089582E0089581E008958FEF089595B1A0
S11301609F7095B995B1282F207F922B95B995B1A1
S11301709E7F95B995B1926095B932E03A95F1F7C1
S113018000C095B19D7F95B9EFE8F1E03197F1F7A3
S113019000C0000095B19F7095B925B1F0E18F9F23
S11301A0C0011124822B85B985B1826085B932E002
S11301B03A95F1F700C085B18D7F85B98FE99FE04D
S11301C00197F1F700C00000089595B19F70282FA2
S11301D0207F922B95B995B1916095B995B19260B4
S11301E095B932E03A95F1F700C095B19D7F95B984
S11301F0EFE8F1E03197F1F700C0000025B1F0E13C
S11302008F9FC0011124922F9F70892B85B985B1CE
S1130210826085B932E03A95F1F700C085B18D7FEF
S113022085B98FE99FE00197F1F700C000000895B8
S11302308FEF84B98FE39CE90197F1F700C00000C8
S113024083E30E94AF0082E30E94AF0088E20E9431
S1130250AF008CE00E94AF0086E00E94AF0081E016
S11302600E94AF008FE99FE00197F1F700C0000002
S113027080E80E94AF0008951AB88FEF88B90E94F1
S113028018010E9440008130D1F72FEF81EE94E0F5
S1130290215080409040E1F700C0000084E40E94B7
S10B02A0E500EDCFF894FFCF57
S9030000FC
