:100000000C9434000C94DE000C94DE000C94DE00A2
:100010000C94DE000C94DE000C94DE000C94DE00E8
:100020000C94DE000C94DE000C94DE000C94DE00D8
:100030000C94DE000C94DE000C94DE000C94DE00C8
:100040000C94DE000C94DE000C94DE000C94DE00B8
:100050000C94DE000C94DE000C94DE000C94DE00A8
:100060000C94DE000C94DE0011241FBECFEFD8E00C
:10007000DEBFCDBF0E94CD000C943E00F894FFCFB0
:1000800095B19F7095B995B1282F207F922B95B986
:1000900095B19E7F95B995B1926095B932E03A9548
:1000A000F1F700C095B19D7F95B9EFE8F1E0319788
:1000B000F1F700C0000095B19F7095B925B1F0E14E
:1000C0008F9FC0011124822B85B985B1826085B9CB
:1000D00032E03A95F1F700C085B18D7F85B98FE99F
:0C00E0009FE00197F1F700C000000895B8
:1000EC0095B19F70282F207F922B95B995B1916077
:1000FC0095B995B1926095B932E03A95F1F700C097
:10010C0095B19D7F95B9EFE8F1E03197F1F700C01B
:10011C00000025B1F0E18F9FC0011124922F9F7038
:10012C00892B85B985B1826085B932E03A95F1F7B2
:10013C0000C085B18D7F85B98FE99FE00197F1F7FC
:06014C0000C00000089550
:100152008FEF84B98FE39CE90197F1F700C00000AB
:1001620083E30E94400082E30E94400088E20E94F2
:1001720040008CE00E94400086E00E94400081E046
:100182000E9440008FE99FE00197F1F700C0000054
:0801920080E80E94400008957E
:10019A000E94A90083E087B91AB88FEF8BB9349906
:1001AA0002C089B101C080E0349BFECF0E94760074
:0201BA00FFCF75
:0401BC000C9400009F
:00000001FF
