:100000000C9434000C943E000C943E000C943E0082
:100010000C943E000C943E000C943E000C943E0068
:100020000C943E000C943E000C943E000C943E0058
:100030000C943E000C943E000C943E000C943E0048
:100040000C943E000C943E000C943E000C943E0038
:100050000C943E000C943E000C943E000C943E0028
:100060000C943E000C943E0011241FBECFEFD8E04C
:10007000DEBFCDBF0E945C000C9499000C94000080
:1000800080E480937C0087E880937A0008958770ED
:10009000ECE7F0E09081987F892B8083EAE7F0E03D
:1000A00080818064808380917A0086FDFCCF80917E
:1000B00078009091790008958FEF84B90E944000F4
:1000C000E0E8F0E0808182688083E1E8F0E0808110
:1000D0008B61808387E893E190938700809386000B
:1000E00080E00E944700EC0181E00E94470082E02E
:1000F0000E944700CC3CD14078F485B1816085B93D
:1001000087E291E090938900809388008BE899EBD7
:100110000197F1F700C0000083E691E09093890019
:100120008093880083EE97E50197F1F700C0000007
:06013000D7CFF894FFCFC9
:00000001FF
