:020000020000FC
:1000000000EF04B90FE005B913B11F702E9A0E94DA
:100010000E002E980E940E000C9404004FE31F3037
:1000200071F143E41E3059F147E41D3041F14DE4D4
:100030001C3029F143E51B3011F14BE51A30F9F082
:1000400044E61930E1F04FE61830C9F04DE71730BB
:10005000B1F04EE8163099F046EA153081F048ECE0
:10006000143069F04AEF133051F032E0123059F099
:1000700033E0113041F036E0103029F008950000EF
:100080004A95E9F7FBCF46EA00004A95E9F73A9529
:04009000D1F7F4CFE1
:00000001FF
