:100000000C9434000C9449000C9449000C94490061
:100010000C9449000C9449000C9449000C9449003C
:100020000C9449000C9449000C9449000C9449002C
:100030000C9449000C9449000C9449000C9449001C
:100040000C9449000C9449000C9449000C9449000C
:100050000C9449000C9449000C9449000C944900FC
:100060000C9449000C94490011241FBECFEFD8E036
:10007000DEBFCDBF11E0A0E0B1E0EEECF1E002C0E8
:1000800005900D92A032B107D9F70E946D000C9433
:10009000E5000C9400008BB988B18E7F88B988B1D7
:1000A000826088B981EE94E00197F1F700C000000A
:1000B00088B18D7F88B908958BB988B1816088B97E
:1000C00088B1826088B983ED90E30197F1F700C0B1
:1000D000000088B18D7F88B908950F931F93CF9347
:1000E000DF93CDB7DEB7A0970FB6F894DEBF0FBE93
:1000F000CDBF80E1E0E0F1E0DE01119601900D92CC
:100100008A95E1F780E1E0E1F1E0DE0151960190AE
:100110000D928A95E1F78FEF8AB983E087B988E37A
:100120000E944B008CE00E944B0080E80E944B0034
:1001300000E010E01DC02FE986E891E021508040EA
:100140009040E1F700C00000E1E0F0E0EC0FFD1F9F
:10015000E00FF11F80810E945C0086E00E944B004E
:100160000430110519F484E10E944B000F5F1F4F0A
:100170000031110504F380EC0E944B0000E010E018
:1001800014C083ED90E30197F1F700C00000E1E1B6
:10019000F0E0EC0FFD1FE00FF11F80810E945C007A
:1001A00086E00E944B000F5F1F4F003111054CF39A
:1001B00080E090E0A0960FB6F894DEBF0FBECDBFF2
:0E01C000DF91CF911F910F910895F894FFCF1A
:1001CE004841524953495246414E2020202020207A
:1001DE00464131382D4243452D30393020202020E4
:00000001FF
