:100000000C9434000C943E000C943E000C943E0082
:100010000C943E000C943E000C943E000C943E0068
:100020000C943E000C943E000C943E000C943E0058
:100030000C943E000C943E000C943E000C943E0048
:100040000C943E000C943E000C943E000C943E0038
:100050000C943E000C943E000C943E000C943E0028
:100060000C943E000C943E0011241FBECFEFD8E04C
:10007000DEBFCDBF0E9440000C946C000C940000C9
:1000800083E087B98FEF8AB980EC8BB918B887EA1B
:1000900091E60197F1F700C0000081E088B989EF8F
:1000A0008BB987EA91E60197F1F700C0000082E082
:1000B00088B984EA8BB987EA91E60197F1F700C025
:1000C000000080EB8BB983E088B98FE493EC019753
:0C00D000F1F700C00000D8CFF894FFCF7B
:00000001FF
