:100000000C9434000C943E000C943E000C943E0082
:100010000C943E000C943E000C943E000C943E0068
:100020000C943E000C943E000C943E000C943E0058
:100030000C943E000C943E000C943E000C943E0048
:100040000C943E000C943E000C943E000C943E0038
:100050000C943E000C943E000C943E000C943E0028
:100060000C943E000C943E0011241FBECFEFD8E04C
:10007000DEBFCDBF0E9440000C9457000C940000DE
:100080001AB81BB82FEF84E39CE0215080409040C9
:10009000E1F700C000008FEF8BB92FEF84E39CE005
:1000A000215080409040E1F700C00000EACFF89472
:0200B000FFCF80
:00000001FF
