S02200004D696E6950726F6A656374315461736B314E65776D6574686F642E73726563FE
S11300000C9434000C943E000C943E000C943E007E
S11300100C943E000C943E000C943E000C943E0064
S11300200C943E000C943E000C943E000C943E0054
S11300300C943E000C943E000C943E000C943E0044
S11300400C943E000C943E000C943E000C943E0034
S11300500C943E000C943E000C943E000C943E0024
S11300600C943E000C943E0011241FBECFEFD8E048
S1130070DEBFCDBF0E9440000C946C000C940000C5
S113008083E08AB98FEF84B91BB880EC85B98FE01F
S113009097E20197F1F700C0000081E08BB989EF86
S11300A085B98FE097E20197F1F700C0000082E084
S11300B08BB984EA85B98FE097E20197F1F700C024
S11300C0000083E08BB980EB85B98FE097E201975C
S10F00D0F1F700C00000D8CFF894FFCF77
S9030000FC
