S01200004D696E6970726F6A74722E73726563E4
S11300000C9466000C9478000C9478000C9478009E
S11300100C9478000C9478000C9478000C9478007C
S11300200C9478000C9478000C9478000C9478006C
S11300300C9478000C9478000C9478000C9478005C
S11300400C94DA000C9478000C9478000C947800EA
S11300500C9478000C9478000C9478000C9478003C
S11300600C9478000C947800B0009F00B200A100BA
S1130070A300A500A700A900AB00AD000000000884
S1130080000201000003040700000000000000005B
S1130090010204081020408001020408102001021B
S11300A004081020040404040404040402020202E8
S11300B002020303030303030000000025002800D9
S11300C02B0000000000240027002A0011241FBE7A
S11300D0CFEFD8E0DEBFCDBF21E0A0E0B1E001C0AA
S11300E01D92A930B207E1F70E94CB000C9485025F
S11300F00C94000061E084E00E94E90161E087E083
S11301000E94E90161E088E00C94E901CF93C82FD3
S113011060E087E00E9425022C2F40E068E084E044
S11301200E94540261E087E0CF910C9425028A304A
S11301309105A8F4FC01EC5CFF4F0C947F028FE95D
S113014008958DE0089589E9089589E4089581E486
S113015008958FE1089581E0089589E00895089550
S113016083E0089585E20895CF93DF93C0E0D0E063
S1130170CE010E9497000E94860062E370E080E056
S113018090E00E9449012196CA30D10589F7DF9198
S1130190CF91089508950E9485010E94CA000E948B
S11301A07A00C0E0D0E00E94B4002097E1F30E94FE
S11301B00000F9CF1F920F920FB60F9211242F93C4
S11301C03F938F939F93AF93BF938091010190913D
S11301D00201A0910301B09104013091000123E0D8
S11301E0230F2D3720F40196A11DB11D05C026E86B
S11301F0230F0296A11DB11D2093000180930101DC
S113020090930201A0930301B0930401809105012E
S113021090910601A0910701B09108010196A11DDA
S1130220B11D8093050190930601A0930701B0933B
S11302300801BF91AF919F918F913F912F910F90A2
S11302400FBE0F901F9018953FB7F8948091050149
S113025090910601A0910701B091080126B5A89BD1
S113026005C02F3F19F00196A11DB11D3FBFBA2F44
S1130270A92F982F8827820F911DA11DB11DBC01A4
S1130280CD0142E0660F771F881F991F4A95D1F769
S113029008958F929F92AF92BF92CF92DF92EF9286
S11302A0FF926B017C010E9424014B015C01C1148B
S11302B0D104E104F10401F10E947E020E942401B0
S11302C0DC01CB0188199909AA09BB09883E93402E
S11302D0A105B10560F321E0C21AD108E108F108D3
S11302E088EE880E83E0981EA11CB11CC114D104B1
S11302F0E104F10419F7DBCFFF90EF90DF90CF908A
S1130300BF90AF909F908F900895789484B5826049
S113031084BD84B5816084BD85B5826085BD85B5A5
S1130320816085BDEEE6F0E0808181608083E1E854
S1130330F0E010828081826080838081816080838C
S1130340E0E8F0E0808181608083E1EBF0E080818F
S113035084608083E0EBF0E0808181608083EAE761
S1130360F0E08081846080838081826080838081EA
S1130370816080838081806880831092C1000895A9
S1130380833081F028F4813099F08230A1F008950F
S11303908730A9F08830B9F08430D1F4809180009E
S11303A08F7D03C0809180008F77809380000895B3
S11303B084B58F7702C084B58F7D84BD0895809104
S11303C0B0008F7703C08091B0008F7D8093B00020
S11303D00895CF93DF9390E0FC01E057FF4F249101
S11303E0FC01EC55FF4F8491882361F190E0880F64
S11303F0991FFC01EE53FF4FC591D491FC01E854C1
S1130400FF4FA591B491611109C09FB7F8948881F9
S1130410209582238883EC912E230BC0623061F4F3
S11304209FB7F8948881322F309583238883EC9189
S11304302E2B2C939FBF06C08FB7F894E8812E2BE8
S113044028838FBFDF91CF9108951F93CF93DF93BC
S1130450282F30E0F901E458FF4F8491F901E05767
S1130460FF4FD491F901EC55FF4FC491CC23C1F057
S1130470162F81110E94C001EC2FF0E0EE0FFF1F38
S1130480E854FF4FA591B4919FB7F894111104C09B
S11304908C91D095D82302C0EC91DE2BDC939FBFC6
S11304A0DF91CF911F910895FF920F931F93CF93E4
S11304B0DF93082F162FF42EC22FD8E06C2FF110E3
S11304C006C06170802F0E942502C69507C0661F72
S11304D06627661F802F0E942502CC0F61E0812FC2
S11304E00E94250260E0812F0E942502D15031F73D
S11304F0DF91CF911F910F91FF9008950895EE0F12
S1110500FF1F0590F491E02D0994F894FFCFAD
S9030000FC
