:100000000C9434000C9446000C9446000C9446006A
:100010000C9446000C9446000C9446000C94460048
:100020000C9446000C9446000C9446000C94460038
:100030000C9446000C9446000C9446000C94460028
:100040000C9446000C9446000C9446000C94460018
:100050000C9446000C9446000C9446000C94460008
:100060000C9446000C94460011241FBECFEFD8E03C
:10007000DEBFCDBF21E0A0E0B1E001C01D92A03005
:10008000B207E1F70E9495000C94AB000C940000BD
:100090009093C5008093C400E0ECF0E08081826022
:1000A0008083E1ECF0E0808188618083E2ECF0E025
:1000B00080818063808308959091C00095FFFCCF7C
:1000C0008093C60008958091C0008823E4F7809152
:1000D000C600089595B19D7F95B9EEECF0E031979B
:1000E000F1F7000091E011C0292F282329F025B154
:1000F000226025B9990F04C025B12D7F25B9990F2C
:10010000EEECF0E03197F1F700009111EDCF8EECBD
:1001100090E00197F1F70000EEECF0E03197F1F795
:10012000000085B1826085B908958FEF84B987E6B4
:1001300090E00E9448000E946300C82F8FE39CE972
:100140000197F1F700C000008C2F0E945C008C2FFB
:0A0150000E946A00F0CFF894FFCF80
:00000001FF
